{
  "_format": "hh-sol-artifact-1",
  "contractName": "MessageBoard",
  "sourceName": "contracts/MessageBoard.sol",
  "abi": [
    {
      "anonymous": false,
      "inputs": [
        {
          "indexed": true,
          "internalType": "address",
          "name": "sender",
          "type": "address"
        },
        {
          "indexed": false,
          "internalType": "string",
          "name": "content",
          "type": "string"
        },
        {
          "indexed": false,
          "internalType": "uint256",
          "name": "timestamp",
          "type": "uint256"
        }
      ],
      "name": "MessagePosted",
      "type": "event"
    },
    {
      "inputs": [],
      "name": "getAllMessages",
      "outputs": [
        {
          "components": [
            {
              "internalType": "address",
              "name": "sender",
              "type": "address"
            },
            {
              "internalType": "string",
              "name": "content",
              "type": "string"
            },
            {
              "internalType": "uint256",
              "name": "timestamp",
              "type": "uint256"
            }
          ],
          "internalType": "struct Message[]",
          "name": "",
          "type": "tuple[]"
        }
      ],
      "stateMutability": "view",
      "type": "function"
    },
    {
      "inputs": [],
      "name": "getMessageCount",
      "outputs": [
        {
          "internalType": "uint256",
          "name": "",
          "type": "uint256"
        }
      ],
      "stateMutability": "view",
      "type": "function"
    },
    {
      "inputs": [
        {
          "internalType": "uint256",
          "name": "",
          "type": "uint256"
        }
      ],
      "name": "messages",
      "outputs": [
        {
          "internalType": "address",
          "name": "sender",
          "type": "address"
        },
        {
          "internalType": "string",
          "name": "content",
          "type": "string"
        },
        {
          "internalType": "uint256",
          "name": "timestamp",
          "type": "uint256"
        }
      ],
      "stateMutability": "view",
      "type": "function"
    },
    {
      "inputs": [
        {
          "internalType": "string",
          "name": "content",
          "type": "string"
        }
      ],
      "name": "postMessage",
      "outputs": [],
      "stateMutability": "nonpayable",
      "type": "function"
    }
  ],
  "bytecode": "0x6080604052348015600f57600080fd5b50610cf68061001f6000396000f3fe608060405234801561001057600080fd5b506004361061004c5760003560e01c80630d80fefd14610051578063319339161461008357806353f5e380146100a15780636630f88f146100bf575b600080fd5b61006b600480360381019061006691906104c6565b6100db565b60405161007a939291906105d3565b60405180910390f35b61008b6101bd565b6040516100989190610611565b60405180910390f35b6100a96101c9565b6040516100b691906107a6565b60405180910390f35b6100d960048036038101906100d491906108fd565b61031a565b005b600081815481106100eb57600080fd5b90600052602060002090600302016000915090508060000160009054906101000a900473ffffffffffffffffffffffffffffffffffffffff169080600101805461013490610975565b80601f016020809104026020016040519081016040528092919081815260200182805461016090610975565b80156101ad5780601f10610182576101008083540402835291602001916101ad565b820191906000526020600020905b81548152906001019060200180831161019057829003601f168201915b5050505050908060020154905083565b60008080549050905090565b60606000805480602002602001604051908101604052809291908181526020016000905b8282101561031157838290600052602060002090600302016040518060600160405290816000820160009054906101000a900473ffffffffffffffffffffffffffffffffffffffff1673ffffffffffffffffffffffffffffffffffffffff1673ffffffffffffffffffffffffffffffffffffffff16815260200160018201805461027690610975565b80601f01602080910402602001604051908101604052809291908181526020018280546102a290610975565b80156102ef5780601f106102c4576101008083540402835291602001916102ef565b820191906000526020600020905b8154815290600101906020018083116102d257829003601f168201915b50505050508152602001600282015481525050815260200190600101906101ed565b50505050905090565b600081511161035e576040517f08c379a0000000000000000000000000000000000000000000000000000000008152600401610355906109f2565b60405180910390fd5b600060405180606001604052803373ffffffffffffffffffffffffffffffffffffffff168152602001838152602001428152509050600081908060018154018082558091505060019003906000526020600020906003020160009091909190915060008201518160000160006101000a81548173ffffffffffffffffffffffffffffffffffffffff021916908373ffffffffffffffffffffffffffffffffffffffff160217905550602082015181600101908161041b9190610bbe565b506040820151816002015550503373ffffffffffffffffffffffffffffffffffffffff167f6d334e6c56ab039764300c508e6f79891f4ddce8d92de4108c43fa1de6908a288342604051610470929190610c90565b60405180910390a25050565b6000604051905090565b600080fd5b600080fd5b6000819050919050565b6104a381610490565b81146104ae57600080fd5b50565b6000813590506104c08161049a565b92915050565b6000602082840312156104dc576104db610486565b5b60006104ea848285016104b1565b91505092915050565b600073ffffffffffffffffffffffffffffffffffffffff82169050919050565b600061051e826104f3565b9050919050565b61052e81610513565b82525050565b600081519050919050565b600082825260208201905092915050565b60005b8381101561056e578082015181840152602081019050610553565b60008484015250505050565b6000601f19601f8301169050919050565b600061059682610534565b6105a0818561053f565b93506105b0818560208601610550565b6105b98161057a565b840191505092915050565b6105cd81610490565b82525050565b60006060820190506105e86000830186610525565b81810360208301526105fa818561058b565b905061060960408301846105c4565b949350505050565b600060208201905061062660008301846105c4565b92915050565b600081519050919050565b600082825260208201905092915050565b6000819050602082019050919050565b61066181610513565b82525050565b600082825260208201905092915050565b600061068382610534565b61068d8185610667565b935061069d818560208601610550565b6106a68161057a565b840191505092915050565b6106ba81610490565b82525050565b60006060830160008301516106d86000860182610658565b50602083015184820360208601526106f08282610678565b915050604083015161070560408601826106b1565b508091505092915050565b600061071c83836106c0565b905092915050565b6000602082019050919050565b600061073c8261062c565b6107468185610637565b93508360208202850161075885610648565b8060005b8581101561079457848403895281516107758582610710565b945061078083610724565b925060208a0199505060018101905061075c565b50829750879550505050505092915050565b600060208201905081810360008301526107c08184610731565b905092915050565b600080fd5b600080fd5b7f4e487b7100000000000000000000000000000000000000000000000000000000600052604160045260246000fd5b61080a8261057a565b810181811067ffffffffffffffff82111715610829576108286107d2565b5b80604052505050565b600061083c61047c565b90506108488282610801565b919050565b600067ffffffffffffffff821115610868576108676107d2565b5b6108718261057a565b9050602081019050919050565b82818337600083830152505050565b60006108a061089b8461084d565b610832565b9050828152602081018484840111156108bc576108bb6107cd565b5b6108c784828561087e565b509392505050565b600082601f8301126108e4576108e36107c8565b5b81356108f484826020860161088d565b91505092915050565b60006020828403121561091357610912610486565b5b600082013567ffffffffffffffff8111156109315761093061048b565b5b61093d848285016108cf565b91505092915050565b7f4e487b7100000000000000000000000000000000000000000000000000000000600052602260045260246000fd5b6000600282049050600182168061098d57607f821691505b6020821081036109a05761099f610946565b5b50919050565b7f4d65737361676520636f6e74656e742063616e6e6f7420626520656d70747900600082015250565b60006109dc601f8361053f565b91506109e7826109a6565b602082019050919050565b60006020820190508181036000830152610a0b816109cf565b9050919050565b60008190508160005260206000209050919050565b60006020601f8301049050919050565b600082821b905092915050565b600060088302610a747fffffffffffffffffffffffffffffffffffffffffffffffffffffffffffffffff82610a37565b610a7e8683610a37565b95508019841693508086168417925050509392505050565b6000819050919050565b6000610abb610ab6610ab184610490565b610a96565b610490565b9050919050565b6000819050919050565b610ad583610aa0565b610ae9610ae182610ac2565b848454610a44565b825550505050565b600090565b610afe610af1565b610b09818484610acc565b505050565b5b81811015610b2d57610b22600082610af6565b600181019050610b0f565b5050565b601f821115610b7257610b4381610a12565b610b4c84610a27565b81016020851015610b5b578190505b610b6f610b6785610a27565b830182610b0e565b50505b505050565b600082821c905092915050565b6000610b9560001984600802610b77565b1980831691505092915050565b6000610bae8383610b84565b9150826002028217905092915050565b610bc782610534565b67ffffffffffffffff811115610be057610bdf6107d2565b5b610bea8254610975565b610bf5828285610b31565b600060209050601f831160018114610c285760008415610c16578287015190505b610c208582610ba2565b865550610c88565b601f198416610c3686610a12565b60005b82811015610c5e57848901518255600182019150602085019450602081019050610c39565b86831015610c7b5784890151610c77601f891682610b84565b8355505b6001600288020188555050505b505050505050565b60006040820190508181036000830152610caa818561058b565b9050610cb960208301846105c4565b939250505056fea2646970667358221220e56c1aa51ad368d2835197cca92c29cbc049ec1ae1d1b1a7ff9690afb751af1d64736f6c634300081c0033",
  "linkReferences": {},
  "deployedLinkReferences": {}
}